:10000000000083010308A0008316FF2390008312E1
:10001000F82B00308A000408840A820700342C344C
:100020007E34053400346C340034003400341E3423
:100030000034003400340734003400340034033416
:10004000003400340034023400340034003400340E
:1000500000340034003414340034003400341434D8
:1000600000340034003414340034003400340734D5
:1000700000340034003403340034003400340234DB
:0E008000003400340034003400340034003406
:1001580064008001840A0406031900340406AD28EB
:10016800A7002708A6002608A100A201A20A283095
:10017800032128080800B7003130B5003508A10070
:100188000430B6003608A20037086D210800AA001E
:100198002A08A8002808A1000230A9002908A200FE
:1001A8002B3003212C08A7002B08A60008007F305D
:1001B80083168100073095009F010730831299004C
:1001C80083160514851405128312051683168516E1
:1001D800831285120800B0003008AA002A08A1007E
:1001E8000430AB002B08A2002C3003212F08A900F3
:1001F8002E08A8002D08A7002C08A6000800A500B6
:100208002508A3002308A40083169C180829831234
:10021800210883169B0001308312A202220A0319C7
:10022800080083169C1815297F308312A300230821
:1002380083169C051C141A088312A3002408840042
:100248002308831380000130A3002308A40701308A
:10025800A300230883169B070F29AD01AE01AD014A
:10026800AE012E08803AAB002A08803A2B02031D03
:100278003F2929082D020318080000308312A10025
:10028800A200E6212108220403194E295530C00096
:100298000030C1000130A1000030A200E621210891
:1002A800220403195B292A30C0000030C100153030
:1002B800AC00C630AB00AB0B5F29AC0B5F2900006C
:1002C800640001308312AD070318AE0A0030AE0790
:1002D8003529A5002108A3002308A40083169C182B
:1002E800722983122508FF3E83169B007F308312F4
:1002F800A300230883169C0501308312A202220A58
:100308000319080083169C18862983122408840080
:100318008313000883169A0001308312A300230870
:10032800A4070130A300230883169B0703108B1B27
:1003380003148B131C1555309D00AA309D009C1486
:100348001C11031C80298B178029B201B301B2014B
:10035800B3013308803AAF002E08803A2F02031DFC
:10036800B7292D0832020318D72983120512413004
:10037800B000EE30AF00AF0BBF29B00BBF290000B3
:1003880083120516C330B000CD30AF00AF0BCA29B9
:10039800B00BCA29640001308312B2070318B30AEC
:1003A8000030B307AD2903308312B1008A30B000A2
:1003B8005530AF00AF0BDE29B00BDE29B10BDE29BB
:1003C800E52908000130A300210AEC290310A30D38
:1003D800FF3E031DEA29230805050319F629A10193
:1003E800A2010800C730A300F929A30BF829FC29AA
:1003F800FD2901308312A300210A042A0310A30D4A
:10040800FF3E031D022A23080505031DF3290430B6
:10041800A400E430A300A30B0F2AA40B0F2A0000AA
:1004280001308312A300210A1B2A0310A30DFF3EEB
:10043800031D192A23080505031DF3290330A40009
:100448009730A300A30B262AA40B262A2B2A0130B7
:100458008312A300210A322A0310A30DFF3E031DB5
:10046800302A23080505031DF3290130A1000030B7
:10047800A20008000030BF000030BE000030BD0000
:100488000030BC00201E3C1583160E088312031989
:100498003C1683168E148312A01DBC1483160E08F6
:1004A80083120319BC1583160E1483123F083E04E9
:1004B8003D043C04031D682A0030BF000030BE0024
:1004C8000030BD000D30BC000130B8000030B9006C
:1004D8000030BA000030BB007B30EF202608B80798
:1004E80027080318270F792A7A2AB9072808031832
:1004F800280F7F2A802ABA0729080318290ABB0768
:100508003B08B4003A08B3003908B2003808B10013
:100518007B30BF200030B4000030B3000030B200A0
:100528000030B1007330BF20DB200030BF00003046
:10053800BE000030BD001030BC00332B2A30C00094
:100548000030C1000130A1000030A200E6212108DE
:1005580022040319E82A6F30EF20A91BE82A29088A
:10056800031DC22A2808031DC22A2708031DC22A00
:1005780002302602031DC02A031CE82AFF30B800F7
:10058800FF30B900FF30BA00FF30BB006F30EF20FA
:100598002608B80727080318270FD32AD42AB9072B
:1005A80028080318280FD92ADA2ABA0729080318AD
:1005B800290ABB073B08B4003A08B3003908B2005F
:1005C8003808B1006F30BF200030A100A200E6213A
:1005D800210822040319292B6F30EF20A91B032BB4
:1005E8002908031D292B2808031D292B2708031D6B
:1005F800292B05302602031D012B0318292B013056
:10060800B8000030B9000030BA000030BB006F30CD
:10061800EF202608B80727080318270F142B152BD7
:10062800B90728080318280F1A2B1B2BBA07290803
:100638000318290ABB073B08B4003A08B300390875
:10064800B2003808B1006F30BF206F30CB202708C8
:10065800AE002608AD00A9214A2B00004A2B003025
:10066800003A0319452B4A2B0030003A03193D2B59
:100678004A2B1030083A0319312B183A0319A22AC9
:100688004A2B0030003A0319382B4A2B2A308312A0
:10069800400641040319552B553040064104031DFB
:1006A8007B2B6F30EF20A91B682B2908031D7B2BA0
:1006B8002808031D7B2B2708031D7B2B06302602E9
:1006C800031D662B03187B2B6F30EF20A91B7B2B98
:1006D8002908031DED2B2808031DED2B2708031DF2
:1006E800ED2B01302602031D792B0318ED2B2A3040
:1006F800C0000030C1000030B4000030B30000304A
:10070800B2000330B1006F30BF200930AD000030B7
:10071800AE00A92100308312B4000030B3000030CD
:10072800B2000930B1007330BF200130B80000308A
:10073800B9000030BA000030BB007730EF2026083F
:10074800B80727080318270FAA2BAB2BB9072808C7
:100758000318280FB02BB12BBA0729080318290A48
:10076800BB073B08B4003A08B3003908B2003808A0
:10077800B1007730BF20ED2B8316851283128512C6
:1007880005126F30B420B80001300310B80DFF3ED9
:10079800031DC92B0310380D1D3E84000920A90034
:1007A8000920AA00312183168516831205166F3099
:1007B800B420B80001300310B80DFF3E031DDF2B35
:1007C8000310380D013E84000920A9000920AA0061
:1007D8003121640055308312400641040319C02BAF
:1007E8000130A9000030EB2B83133C3084004230E9
:0607F800AC2083013E2A43
:02400E009C31E3
:1042000001000000000045004500500052004F0032
:104210004D000000000032003000320030002F005E
:10422000300038002F0031003200000000004D0047
:10423000610064006500200069006E0020004A00F3
:104240006100700061006E0020003200300032001A
:10425000300020006200790020004F006C006900EF
:1042600076006500720020004B0061006C00740055
:1042700073007400650069006E002E002000480085
:104280006100760065002000460075006E00210088
:104290002000660069007200650073007000650010
:1042A000650064002C0065007200720063006F00FE
:1042B00075006E0074002C0070006F0077006500C0
:1042C00072006300790063006C00650073002C00CD
:1042D0006C006100730074003A00000000000300ED
:1042E00000000000000000000000000000000000CE
:0E42F0000000000000000000000000000000C0
:00000001FF
